{
  "contractName": "LokJonHarayGese",
  "abi": [
    {
      "inputs": [],
      "stateMutability": "nonpayable",
      "type": "constructor"
    },
    {
      "anonymous": false,
      "inputs": [
        {
          "indexed": false,
          "internalType": "address",
          "name": "customer",
          "type": "address"
        },
        {
          "indexed": false,
          "internalType": "string",
          "name": "role",
          "type": "string"
        }
      ],
      "name": "CustomerRegistrationKorse",
      "type": "event"
    },
    {
      "anonymous": false,
      "inputs": [
        {
          "indexed": false,
          "internalType": "address",
          "name": "whoReported",
          "type": "address"
        },
        {
          "indexed": false,
          "internalType": "address",
          "name": "fedra",
          "type": "address"
        },
        {
          "indexed": false,
          "internalType": "uint256",
          "name": "time",
          "type": "uint256"
        }
      ],
      "name": "EAppointmentBookKorse",
      "type": "event"
    },
    {
      "anonymous": false,
      "inputs": [
        {
          "indexed": false,
          "internalType": "uint256",
          "name": "CaseNum",
          "type": "uint256"
        },
        {
          "indexed": false,
          "internalType": "address",
          "name": "fedra",
          "type": "address"
        }
      ],
      "name": "FEDRAassigned",
      "type": "event"
    },
    {
      "anonymous": false,
      "inputs": [
        {
          "indexed": false,
          "internalType": "uint256",
          "name": "CaseNum",
          "type": "uint256"
        }
      ],
      "name": "HarayJawaReported",
      "type": "event"
    },
    {
      "anonymous": false,
      "inputs": [
        {
          "indexed": false,
          "internalType": "uint256",
          "name": "CaseNum",
          "type": "uint256"
        },
        {
          "indexed": false,
          "internalType": "string",
          "name": "newStatus",
          "type": "string"
        }
      ],
      "name": "StatusUpdateKorsi",
      "type": "event"
    },
    {
      "inputs": [
        {
          "internalType": "uint256",
          "name": "",
          "type": "uint256"
        }
      ],
      "name": "CaseToFedra",
      "outputs": [
        {
          "internalType": "address",
          "name": "",
          "type": "address"
        }
      ],
      "stateMutability": "view",
      "type": "function",
      "constant": true
    },
    {
      "inputs": [
        {
          "internalType": "string",
          "name": "",
          "type": "string"
        }
      ],
      "name": "DivisionCount",
      "outputs": [
        {
          "internalType": "uint256",
          "name": "",
          "type": "uint256"
        }
      ],
      "stateMutability": "view",
      "type": "function",
      "constant": true
    },
    {
      "inputs": [
        {
          "internalType": "address",
          "name": "",
          "type": "address"
        },
        {
          "internalType": "uint256",
          "name": "",
          "type": "uint256"
        }
      ],
      "name": "FedraCases",
      "outputs": [
        {
          "internalType": "uint256",
          "name": "",
          "type": "uint256"
        }
      ],
      "stateMutability": "view",
      "type": "function",
      "constant": true
    },
    {
      "inputs": [
        {
          "internalType": "address",
          "name": "",
          "type": "address"
        },
        {
          "internalType": "uint256",
          "name": "",
          "type": "uint256"
        }
      ],
      "name": "FedraSchedule",
      "outputs": [
        {
          "internalType": "uint256",
          "name": "CaseNum",
          "type": "uint256"
        },
        {
          "internalType": "address",
          "name": "fedra",
          "type": "address"
        },
        {
          "internalType": "uint256",
          "name": "time",
          "type": "uint256"
        },
        {
          "internalType": "address",
          "name": "BookedByWhom",
          "type": "address"
        }
      ],
      "stateMutability": "view",
      "type": "function",
      "constant": true
    },
    {
      "inputs": [],
      "name": "NextCaseNum",
      "outputs": [
        {
          "internalType": "uint256",
          "name": "",
          "type": "uint256"
        }
      ],
      "stateMutability": "view",
      "type": "function",
      "constant": true
    },
    {
      "inputs": [
        {
          "internalType": "uint256",
          "name": "",
          "type": "uint256"
        },
        {
          "internalType": "address",
          "name": "",
          "type": "address"
        }
      ],
      "name": "SlotBooked",
      "outputs": [
        {
          "internalType": "bool",
          "name": "",
          "type": "bool"
        }
      ],
      "stateMutability": "view",
      "type": "function",
      "constant": true
    },
    {
      "inputs": [
        {
          "internalType": "uint256",
          "name": "",
          "type": "uint256"
        }
      ],
      "name": "cases",
      "outputs": [
        {
          "internalType": "uint256",
          "name": "CaseNum",
          "type": "uint256"
        },
        {
          "internalType": "string",
          "name": "nameOfLost",
          "type": "string"
        },
        {
          "internalType": "uint256",
          "name": "ageOfLost",
          "type": "uint256"
        },
        {
          "internalType": "uint256",
          "name": "heightOfLost",
          "type": "uint256"
        },
        {
          "internalType": "enum LokJonHarayGese.STATUS",
          "name": "status",
          "type": "uint8"
        },
        {
          "internalType": "string",
          "name": "DescriptionOfLost",
          "type": "string"
        },
        {
          "internalType": "string",
          "name": "DivisionOfLost",
          "type": "string"
        },
        {
          "internalType": "string",
          "name": "ContactWhom",
          "type": "string"
        },
        {
          "internalType": "enum LokJonHarayGese.URGENCY",
          "name": "urgency",
          "type": "uint8"
        },
        {
          "internalType": "address",
          "name": "whoReported",
          "type": "address"
        },
        {
          "internalType": "address",
          "name": "fedra",
          "type": "address"
        }
      ],
      "stateMutability": "view",
      "type": "function",
      "constant": true
    },
    {
      "inputs": [],
      "name": "contractOwnedBy",
      "outputs": [
        {
          "internalType": "address",
          "name": "",
          "type": "address"
        }
      ],
      "stateMutability": "view",
      "type": "function",
      "constant": true
    },
    {
      "inputs": [
        {
          "internalType": "address",
          "name": "",
          "type": "address"
        }
      ],
      "name": "customers",
      "outputs": [
        {
          "internalType": "string",
          "name": "name",
          "type": "string"
        },
        {
          "internalType": "string",
          "name": "NIDnumber",
          "type": "string"
        },
        {
          "internalType": "enum LokJonHarayGese.ROLE",
          "name": "role",
          "type": "uint8"
        },
        {
          "internalType": "address",
          "name": "thikanaOfUser",
          "type": "address"
        }
      ],
      "stateMutability": "view",
      "type": "function",
      "constant": true
    },
    {
      "inputs": [
        {
          "internalType": "string",
          "name": "_name",
          "type": "string"
        },
        {
          "internalType": "string",
          "name": "_NIDcard",
          "type": "string"
        },
        {
          "internalType": "enum LokJonHarayGese.ROLE",
          "name": "_role",
          "type": "uint8"
        }
      ],
      "name": "registerCustomer",
      "outputs": [],
      "stateMutability": "nonpayable",
      "type": "function"
    },
    {
      "inputs": [
        {
          "internalType": "string",
          "name": "nameOfLost",
          "type": "string"
        },
        {
          "internalType": "uint256",
          "name": "ageOfLost",
          "type": "uint256"
        },
        {
          "internalType": "uint256",
          "name": "heightOfLost",
          "type": "uint256"
        },
        {
          "internalType": "string",
          "name": "DescriptionOfLost",
          "type": "string"
        },
        {
          "internalType": "string",
          "name": "DivisionOfLost",
          "type": "string"
        },
        {
          "internalType": "string",
          "name": "ContactWhom",
          "type": "string"
        }
      ],
      "name": "harayJawaReportKorseJe",
      "outputs": [],
      "stateMutability": "nonpayable",
      "type": "function"
    },
    {
      "inputs": [
        {
          "internalType": "uint256",
          "name": "_caseNum",
          "type": "uint256"
        },
        {
          "internalType": "enum LokJonHarayGese.STATUS",
          "name": "_newStatus",
          "type": "uint8"
        }
      ],
      "name": "updateTheStatus",
      "outputs": [],
      "stateMutability": "nonpayable",
      "type": "function"
    },
    {
      "inputs": [
        {
          "internalType": "uint256",
          "name": "_caseNum",
          "type": "uint256"
        },
        {
          "internalType": "address",
          "name": "_fedra",
          "type": "address"
        }
      ],
      "name": "FEDRAAssignKorsi",
      "outputs": [],
      "stateMutability": "nonpayable",
      "type": "function"
    },
    {
      "inputs": [
        {
          "internalType": "uint256",
          "name": "_caseNum",
          "type": "uint256"
        },
        {
          "internalType": "address",
          "name": "_fedra",
          "type": "address"
        },
        {
          "internalType": "uint256",
          "name": "_slotTime",
          "type": "uint256"
        }
      ],
      "name": "AppointmentBookKorse",
      "outputs": [],
      "stateMutability": "payable",
      "type": "function",
      "payable": true
    },
    {
      "inputs": [
        {
          "internalType": "address",
          "name": "_fedra",
          "type": "address"
        }
      ],
      "name": "DekhteChaiSchedule",
      "outputs": [
        {
          "components": [
            {
              "internalType": "uint256",
              "name": "CaseNum",
              "type": "uint256"
            },
            {
              "internalType": "address",
              "name": "fedra",
              "type": "address"
            },
            {
              "internalType": "uint256",
              "name": "time",
              "type": "uint256"
            },
            {
              "internalType": "address",
              "name": "BookedByWhom",
              "type": "address"
            }
          ],
          "internalType": "struct LokJonHarayGese.AppointmentForMissing[]",
          "name": "",
          "type": "tuple[]"
        }
      ],
      "stateMutability": "view",
      "type": "function",
      "constant": true
    }
  ],
  "bytecode": "0x60806040523480156200001157600080fd5b5033600160006101000a81548173ffffffffffffffffffffffffffffffffffffffff021916908373ffffffffffffffffffffffffffffffffffffffff16021790555060405180608001604052806040518060400160405280600581526020017f41444d494e00000000000000000000000000000000000000000000000000000081525081526020016040518060400160405280600381526020017f4e2f410000000000000000000000000000000000000000000000000000000000815250815260200160016003811115620000eb57620000ea620001fc565b5b81526020013373ffffffffffffffffffffffffffffffffffffffff16815250600260003373ffffffffffffffffffffffffffffffffffffffff1673ffffffffffffffffffffffffffffffffffffffff1681526020019081526020016000206000820151816000019081620001609190620004a5565b506020820151816001019081620001789190620004a5565b5060408201518160020160006101000a81548160ff02191690836003811115620001a757620001a6620001fc565b5b021790555060608201518160020160016101000a81548173ffffffffffffffffffffffffffffffffffffffff021916908373ffffffffffffffffffffffffffffffffffffffff1602179055509050506200058c565b7f4e487b7100000000000000000000000000000000000000000000000000000000600052602160045260246000fd5b600081519050919050565b7f4e487b7100000000000000000000000000000000000000000000000000000000600052604160045260246000fd5b7f4e487b7100000000000000000000000000000000000000000000000000000000600052602260045260246000fd5b60006002820490506001821680620002ad57607f821691505b602082108103620002c357620002c262000265565b5b50919050565b60008190508160005260206000209050919050565b60006020601f8301049050919050565b600082821b905092915050565b6000600883026200032d7fffffffffffffffffffffffffffffffffffffffffffffffffffffffffffffffff82620002ee565b620003398683620002ee565b95508019841693508086168417925050509392505050565b6000819050919050565b6000819050919050565b600062000386620003806200037a8462000351565b6200035b565b62000351565b9050919050565b6000819050919050565b620003a28362000365565b620003ba620003b1826200038d565b848454620002fb565b825550505050565b600090565b620003d1620003c2565b620003de81848462000397565b505050565b5b818110156200040657620003fa600082620003c7565b600181019050620003e4565b5050565b601f82111562000455576200041f81620002c9565b6200042a84620002de565b810160208510156200043a578190505b620004526200044985620002de565b830182620003e3565b50505b505050565b600082821c905092915050565b60006200047a600019846008026200045a565b1980831691505092915050565b600062000495838362000467565b9150826002028217905092915050565b620004b0826200022b565b67ffffffffffffffff811115620004cc57620004cb62000236565b5b620004d8825462000294565b620004e58282856200040a565b600060209050601f8311600181146200051d576000841562000508578287015190505b62000514858262000487565b86555062000584565b601f1984166200052d86620002c9565b60005b82811015620005575784890151825560018201915060208501945060208101905062000530565b8683101562000577578489015162000573601f89168262000467565b8355505b6001600288020188555050505b505050505050565b61352d806200059c6000396000f3fe6080604052600436106100e85760003560e01c806369ff25181161008a578063a167d31311610059578063a167d31314610323578063d2ee506e1461034e578063deea096314610377578063f09790dd146103b4576100e8565b806369ff2518146102525780637bb354e11461028f57806385c39bf0146102cf5780639765a82b146102f8576100e8565b80632ee168fe116100c65780632ee168fe1461017c578063336989ae146101985780633b8ce702146101d8578063523cb3d714610215576100e8565b80630c1b9f2c146100ed5780631ca0bb7e1461012a5780632a8365b214610153575b600080fd5b3480156100f957600080fd5b50610114600480360381019061010f9190611f20565b6103fb565b6040516101219190611f6f565b60405180910390f35b34801561013657600080fd5b50610151600480360381019061014c91906120d0565b61042c565b005b34801561015f57600080fd5b5061017a600480360381019061017591906121f2565b610875565b005b61019660048036038101906101919190612232565b610b82565b005b3480156101a457600080fd5b506101bf60048036038101906101ba9190612285565b61113a565b6040516101cf94939291906123b7565b60405180910390f35b3480156101e457600080fd5b506101ff60048036038101906101fa919061240a565b6112a7565b60405161020c9190612465565b60405180910390f35b34801561022157600080fd5b5061023c60048036038101906102379190612285565b6112d6565b60405161024991906125a2565b60405180910390f35b34801561025e57600080fd5b50610279600480360381019061027491906125c4565b6114e9565b6040516102869190611f6f565b60405180910390f35b34801561029b57600080fd5b506102b660048036038101906102b19190611f20565b611517565b6040516102c6949392919061260d565b60405180910390f35b3480156102db57600080fd5b506102f660048036038101906102f19190612677565b6115a4565b005b34801561030457600080fd5b5061030d6117b3565b60405161031a9190611f6f565b60405180910390f35b34801561032f57600080fd5b506103386117b9565b6040516103459190612702565b60405180910390f35b34801561035a57600080fd5b506103756004803603810190610370919061240a565b6117df565b005b34801561038357600080fd5b5061039e6004803603810190610399919061271d565b611b71565b6040516103ab9190612702565b60405180910390f35b3480156103c057600080fd5b506103db60048036038101906103d6919061271d565b611ba4565b6040516103f29b9a999897969594939291906127da565b60405180910390f35b6006602052816000526040600020818154811061041757600080fd5b90600052602060002001600091509150505481565b600060038111156104405761043f612331565b5b600260003373ffffffffffffffffffffffffffffffffffffffff1673ffffffffffffffffffffffffffffffffffffffff16815260200190815260200160002060020160009054906101000a900460ff1660038111156104a2576104a1612331565b5b036104e2576040517f08c379a00000000000000000000000000000000000000000000000000000000081526004016104d9906128ed565b60405180910390fd5b600260038111156104f6576104f5612331565b5b600260003373ffffffffffffffffffffffffffffffffffffffff1673ffffffffffffffffffffffffffffffffffffffff16815260200190815260200160002060020160009054906101000a900460ff16600381111561055857610557612331565b5b14610598576040517f08c379a000000000000000000000000000000000000000000000000000000000815260040161058f9061297f565b60405180910390fd5b600060128610156105ac57600290506105c4565b60328611156105be57600190506105c3565b600090505b5b6000604051806101600160405280600054815260200189815260200188815260200187815260200160006001811115610600576105ff612331565b5b815260200186815260200185815260200184815260200183600281111561062a57610629612331565b5b81526020013373ffffffffffffffffffffffffffffffffffffffff168152602001600073ffffffffffffffffffffffffffffffffffffffff16815250905080600360008054815260200190815260200160002060008201518160000155602082015181600101908161069c9190612bab565b50604082015181600201556060820151816003015560808201518160040160006101000a81548160ff021916908360018111156106dc576106db612331565b5b021790555060a08201518160050190816106f69190612bab565b5060c082015181600601908161070c9190612bab565b5060e08201518160070190816107229190612bab565b506101008201518160080160006101000a81548160ff0219169083600281111561074f5761074e612331565b5b02179055506101208201518160080160016101000a81548173ffffffffffffffffffffffffffffffffffffffff021916908373ffffffffffffffffffffffffffffffffffffffff1602179055506101408201518160090160006101000a81548173ffffffffffffffffffffffffffffffffffffffff021916908373ffffffffffffffffffffffffffffffffffffffff1602179055509050506004846040516107f79190612cb9565b9081526020016040518091039020600081548092919061081690612cff565b91905055507fc3b2d00872009149f1f7ee167a497b92c6b46636224a255cd1548830241c6dfc60005460405161084c9190611f6f565b60405180910390a160008081548092919061086690612cff565b91905055505050505050505050565b6001600381111561088957610888612331565b5b600260003373ffffffffffffffffffffffffffffffffffffffff1673ffffffffffffffffffffffffffffffffffffffff16815260200190815260200160002060020160009054906101000a900460ff1660038111156108eb576108ea612331565b5b1461092b576040517f08c379a000000000000000000000000000000000000000000000000000000000815260040161092290612db9565b60405180910390fd5b6001600381111561093f5761093e612331565b5b600260003373ffffffffffffffffffffffffffffffffffffffff1673ffffffffffffffffffffffffffffffffffffffff16815260200190815260200160002060020160009054906101000a900460ff1660038111156109a1576109a0612331565b5b146109e1576040517f08c379a00000000000000000000000000000000000000000000000000000000081526004016109d890612e4b565b60405180910390fd5b6000548210610a25576040517f08c379a0000000000000000000000000000000000000000000000000000000008152600401610a1c90612eb7565b60405180910390fd5b600060036000848152602001908152602001600020905060006001811115610a5057610a4f612331565b5b8160040160009054906101000a900460ff166001811115610a7457610a73612331565b5b14610ab4576040517f08c379a0000000000000000000000000000000000000000000000000000000008152600401610aab90612f49565b60405180910390fd5b600180811115610ac757610ac6612331565b5b826001811115610ada57610ad9612331565b5b14610b1a576040517f08c379a0000000000000000000000000000000000000000000000000000000008152600401610b1190612fb5565b60405180910390fd5b818160040160006101000a81548160ff02191690836001811115610b4157610b40612331565b5b02179055507f8c3530bbae6e18d7c8573553e7e16fed699a2cb30f252a8b1a76e75cd6d8393b83604051610b759190613021565b60405180910390a1505050565b60006003811115610b9657610b95612331565b5b600260003373ffffffffffffffffffffffffffffffffffffffff1673ffffffffffffffffffffffffffffffffffffffff16815260200190815260200160002060020160009054906101000a900460ff166003811115610bf857610bf7612331565b5b03610c38576040517f08c379a0000000000000000000000000000000000000000000000000000000008152600401610c2f906128ed565b60405180910390fd5b60026003811115610c4c57610c4b612331565b5b600260003373ffffffffffffffffffffffffffffffffffffffff1673ffffffffffffffffffffffffffffffffffffffff16815260200190815260200160002060020160009054906101000a900460ff166003811115610cae57610cad612331565b5b14610cee576040517f08c379a0000000000000000000000000000000000000000000000000000000008152600401610ce59061309b565b60405180910390fd5b6000548310610d32576040517f08c379a0000000000000000000000000000000000000000000000000000000008152600401610d2990613107565b60405180910390fd5b600380811115610d4557610d44612331565b5b600260008473ffffffffffffffffffffffffffffffffffffffff1673ffffffffffffffffffffffffffffffffffffffff16815260200190815260200160002060020160009054906101000a900460ff166003811115610da757610da6612331565b5b14610de7576040517f08c379a0000000000000000000000000000000000000000000000000000000008152600401610dde90613173565b60405180910390fd5b66b1a2bc2ec50000341015610e31576040517f08c379a0000000000000000000000000000000000000000000000000000000008152600401610e28906131df565b60405180910390fd5b6008600082815260200190815260200160002060008373ffffffffffffffffffffffffffffffffffffffff1673ffffffffffffffffffffffffffffffffffffffff16815260200190815260200160002060009054906101000a900460ff1615610ecf576040517f08c379a0000000000000000000000000000000000000000000000000000000008152600401610ec69061324b565b60405180910390fd5b60016008600083815260200190815260200160002060008473ffffffffffffffffffffffffffffffffffffffff1673ffffffffffffffffffffffffffffffffffffffff16815260200190815260200160002060006101000a81548160ff021916908315150217905550600760008373ffffffffffffffffffffffffffffffffffffffff1673ffffffffffffffffffffffffffffffffffffffff16815260200190815260200160002060405180608001604052808581526020018473ffffffffffffffffffffffffffffffffffffffff1681526020018381526020013373ffffffffffffffffffffffffffffffffffffffff1681525090806001815401808255809150506001900390600052602060002090600402016000909190919091506000820151816000015560208201518160010160006101000a81548173ffffffffffffffffffffffffffffffffffffffff021916908373ffffffffffffffffffffffffffffffffffffffff1602179055506040820151816002015560608201518160030160006101000a81548173ffffffffffffffffffffffffffffffffffffffff021916908373ffffffffffffffffffffffffffffffffffffffff1602179055505050600160009054906101000a900473ffffffffffffffffffffffffffffffffffffffff1673ffffffffffffffffffffffffffffffffffffffff166108fc349081150290604051600060405180830381858888f193505050501580156110f9573d6000803e3d6000fd5b507f6569d99fd3f5819db5943f01933584f934abf6b7f378369b7ceda6af151b042a33838360405161112d9392919061326b565b60405180910390a1505050565b600260205280600052604060002060009150905080600001805461115d906129ce565b80601f0160208091040260200160405190810160405280929190818152602001828054611189906129ce565b80156111d65780601f106111ab576101008083540402835291602001916111d6565b820191906000526020600020905b8154815290600101906020018083116111b957829003601f168201915b5050505050908060010180546111eb906129ce565b80601f0160208091040260200160405190810160405280929190818152602001828054611217906129ce565b80156112645780601f1061123957610100808354040283529160200191611264565b820191906000526020600020905b81548152906001019060200180831161124757829003601f168201915b5050505050908060020160009054906101000a900460ff16908060020160019054906101000a900473ffffffffffffffffffffffffffffffffffffffff16905084565b60086020528160005260406000206020528060005260406000206000915091509054906101000a900460ff1681565b60606003808111156112eb576112ea612331565b5b600260008473ffffffffffffffffffffffffffffffffffffffff1673ffffffffffffffffffffffffffffffffffffffff16815260200190815260200160002060020160009054906101000a900460ff16600381111561134d5761134c612331565b5b1461138d576040517f08c379a0000000000000000000000000000000000000000000000000000000008152600401611384906132ee565b60405180910390fd5b600760008373ffffffffffffffffffffffffffffffffffffffff1673ffffffffffffffffffffffffffffffffffffffff168152602001908152602001600020805480602002602001604051908101604052809291908181526020016000905b828210156114de5783829060005260206000209060040201604051806080016040529081600082015481526020016001820160009054906101000a900473ffffffffffffffffffffffffffffffffffffffff1673ffffffffffffffffffffffffffffffffffffffff1673ffffffffffffffffffffffffffffffffffffffff168152602001600282015481526020016003820160009054906101000a900473ffffffffffffffffffffffffffffffffffffffff1673ffffffffffffffffffffffffffffffffffffffff1673ffffffffffffffffffffffffffffffffffffffff1681525050815260200190600101906113ec565b505050509050919050565b6004818051602081018201805184825260208301602085012081835280955050505050506000915090505481565b6007602052816000526040600020818154811061153357600080fd5b9060005260206000209060040201600091509150508060000154908060010160009054906101000a900473ffffffffffffffffffffffffffffffffffffffff16908060020154908060030160009054906101000a900473ffffffffffffffffffffffffffffffffffffffff16905084565b60405180608001604052808481526020018381526020018260038111156115ce576115cd612331565b5b81526020013373ffffffffffffffffffffffffffffffffffffffff16815250600260003373ffffffffffffffffffffffffffffffffffffffff1673ffffffffffffffffffffffffffffffffffffffff16815260200190815260200160002060008201518160000190816116419190612bab565b5060208201518160010190816116579190612bab565b5060408201518160020160006101000a81548160ff0219169083600381111561168357611682612331565b5b021790555060608201518160020160016101000a81548173ffffffffffffffffffffffffffffffffffffffff021916908373ffffffffffffffffffffffffffffffffffffffff1602179055509050506000600260038111156116e8576116e7612331565b5b8260038111156116fb576116fa612331565b5b1461173b576040518060400160405280600581526020017f4645445241000000000000000000000000000000000000000000000000000000815250611772565b6040518060400160405280600881526020017f434956494c49414e0000000000000000000000000000000000000000000000008152505b90507fd2bbbe2a152694b06b1a220a079ad502c6f0c511592405a456943c985aed79e233826040516117a592919061330e565b60405180910390a150505050565b60005481565b600160009054906101000a900473ffffffffffffffffffffffffffffffffffffffff1681565b600160038111156117f3576117f2612331565b5b600260003373ffffffffffffffffffffffffffffffffffffffff1673ffffffffffffffffffffffffffffffffffffffff16815260200190815260200160002060020160009054906101000a900460ff16600381111561185557611854612331565b5b14611895576040517f08c379a000000000000000000000000000000000000000000000000000000000815260040161188c906133b0565b60405180910390fd5b60005482106118d9576040517f08c379a00000000000000000000000000000000000000000000000000000000081526004016118d090612eb7565b60405180910390fd5b6003808111156118ec576118eb612331565b5b600260008373ffffffffffffffffffffffffffffffffffffffff1673ffffffffffffffffffffffffffffffffffffffff16815260200190815260200160002060020160009054906101000a900460ff16600381111561194e5761194d612331565b5b1461198e576040517f08c379a00000000000000000000000000000000000000000000000000000000081526004016119859061341c565b60405180910390fd5b6000600360008481526020019081526020016000209050600073ffffffffffffffffffffffffffffffffffffffff168160090160009054906101000a900473ffffffffffffffffffffffffffffffffffffffff1673ffffffffffffffffffffffffffffffffffffffff1614611a38576040517f08c379a0000000000000000000000000000000000000000000000000000000008152600401611a2f906134ae565b60405180910390fd5b818160090160006101000a81548173ffffffffffffffffffffffffffffffffffffffff021916908373ffffffffffffffffffffffffffffffffffffffff160217905550816005600085815260200190815260200160002060006101000a81548173ffffffffffffffffffffffffffffffffffffffff021916908373ffffffffffffffffffffffffffffffffffffffff160217905550600660008373ffffffffffffffffffffffffffffffffffffffff1673ffffffffffffffffffffffffffffffffffffffff1681526020019081526020016000208390806001815401808255809150506001900390600052602060002001600090919091909150557f10a1edd351ccb347c41da169fff8bfde2b8233a4de402a9ae5e928d40d6078228383604051611b649291906134ce565b60405180910390a1505050565b60056020528060005260406000206000915054906101000a900473ffffffffffffffffffffffffffffffffffffffff1681565b6003602052806000526040600020600091509050806000015490806001018054611bcd906129ce565b80601f0160208091040260200160405190810160405280929190818152602001828054611bf9906129ce565b8015611c465780601f10611c1b57610100808354040283529160200191611c46565b820191906000526020600020905b815481529060010190602001808311611c2957829003601f168201915b5050505050908060020154908060030154908060040160009054906101000a900460ff1690806005018054611c7a906129ce565b80601f0160208091040260200160405190810160405280929190818152602001828054611ca6906129ce565b8015611cf35780601f10611cc857610100808354040283529160200191611cf3565b820191906000526020600020905b815481529060010190602001808311611cd657829003601f168201915b505050505090806006018054611d08906129ce565b80601f0160208091040260200160405190810160405280929190818152602001828054611d34906129ce565b8015611d815780601f10611d5657610100808354040283529160200191611d81565b820191906000526020600020905b815481529060010190602001808311611d6457829003601f168201915b505050505090806007018054611d96906129ce565b80601f0160208091040260200160405190810160405280929190818152602001828054611dc2906129ce565b8015611e0f5780601f10611de457610100808354040283529160200191611e0f565b820191906000526020600020905b815481529060010190602001808311611df257829003601f168201915b5050505050908060080160009054906101000a900460ff16908060080160019054906101000a900473ffffffffffffffffffffffffffffffffffffffff16908060090160009054906101000a900473ffffffffffffffffffffffffffffffffffffffff1690508b565b6000604051905090565b600080fd5b600080fd5b600073ffffffffffffffffffffffffffffffffffffffff82169050919050565b6000611eb782611e8c565b9050919050565b611ec781611eac565b8114611ed257600080fd5b50565b600081359050611ee481611ebe565b92915050565b6000819050919050565b611efd81611eea565b8114611f0857600080fd5b50565b600081359050611f1a81611ef4565b92915050565b60008060408385031215611f3757611f36611e82565b5b6000611f4585828601611ed5565b9250506020611f5685828601611f0b565b9150509250929050565b611f6981611eea565b82525050565b6000602082019050611f846000830184611f60565b92915050565b600080fd5b600080fd5b6000601f19601f8301169050919050565b7f4e487b7100000000000000000000000000000000000000000000000000000000600052604160045260246000fd5b611fdd82611f94565b810181811067ffffffffffffffff82111715611ffc57611ffb611fa5565b5b80604052505050565b600061200f611e78565b905061201b8282611fd4565b919050565b600067ffffffffffffffff82111561203b5761203a611fa5565b5b61204482611f94565b9050602081019050919050565b82818337600083830152505050565b600061207361206e84612020565b612005565b90508281526020810184848401111561208f5761208e611f8f565b5b61209a848285612051565b509392505050565b600082601f8301126120b7576120b6611f8a565b5b81356120c7848260208601612060565b91505092915050565b60008060008060008060c087890312156120ed576120ec611e82565b5b600087013567ffffffffffffffff81111561210b5761210a611e87565b5b61211789828a016120a2565b965050602061212889828a01611f0b565b955050604061213989828a01611f0b565b945050606087013567ffffffffffffffff81111561215a57612159611e87565b5b61216689828a016120a2565b935050608087013567ffffffffffffffff81111561218757612186611e87565b5b61219389828a016120a2565b92505060a087013567ffffffffffffffff8111156121b4576121b3611e87565b5b6121c089828a016120a2565b9150509295509295509295565b600281106121da57600080fd5b50565b6000813590506121ec816121cd565b92915050565b6000806040838503121561220957612208611e82565b5b600061221785828601611f0b565b9250506020612228858286016121dd565b9150509250929050565b60008060006060848603121561224b5761224a611e82565b5b600061225986828701611f0b565b935050602061226a86828701611ed5565b925050604061227b86828701611f0b565b9150509250925092565b60006020828403121561229b5761229a611e82565b5b60006122a984828501611ed5565b91505092915050565b600081519050919050565b600082825260208201905092915050565b60005b838110156122ec5780820151818401526020810190506122d1565b60008484015250505050565b6000612303826122b2565b61230d81856122bd565b935061231d8185602086016122ce565b61232681611f94565b840191505092915050565b7f4e487b7100000000000000000000000000000000000000000000000000000000600052602160045260246000fd5b6004811061237157612370612331565b5b50565b600081905061238282612360565b919050565b600061239282612374565b9050919050565b6123a281612387565b82525050565b6123b181611eac565b82525050565b600060808201905081810360008301526123d181876122f8565b905081810360208301526123e581866122f8565b90506123f46040830185612399565b61240160608301846123a8565b95945050505050565b6000806040838503121561242157612420611e82565b5b600061242f85828601611f0b565b925050602061244085828601611ed5565b9150509250929050565b60008115159050919050565b61245f8161244a565b82525050565b600060208201905061247a6000830184612456565b92915050565b600081519050919050565b600082825260208201905092915050565b6000819050602082019050919050565b6124b581611eea565b82525050565b6124c481611eac565b82525050565b6080820160008201516124e060008501826124ac565b5060208201516124f360208501826124bb565b50604082015161250660408501826124ac565b50606082015161251960608501826124bb565b50505050565b600061252b83836124ca565b60808301905092915050565b6000602082019050919050565b600061254f82612480565b612559818561248b565b93506125648361249c565b8060005b8381101561259557815161257c888261251f565b975061258783612537565b925050600181019050612568565b5085935050505092915050565b600060208201905081810360008301526125bc8184612544565b905092915050565b6000602082840312156125da576125d9611e82565b5b600082013567ffffffffffffffff8111156125f8576125f7611e87565b5b612604848285016120a2565b91505092915050565b60006080820190506126226000830187611f60565b61262f60208301866123a8565b61263c6040830185611f60565b61264960608301846123a8565b95945050505050565b6004811061265f57600080fd5b50565b60008135905061267181612652565b92915050565b6000806000606084860312156126905761268f611e82565b5b600084013567ffffffffffffffff8111156126ae576126ad611e87565b5b6126ba868287016120a2565b935050602084013567ffffffffffffffff8111156126db576126da611e87565b5b6126e7868287016120a2565b92505060406126f886828701612662565b9150509250925092565b600060208201905061271760008301846123a8565b92915050565b60006020828403121561273357612732611e82565b5b600061274184828501611f0b565b91505092915050565b6002811061275b5761275a612331565b5b50565b600081905061276c8261274a565b919050565b600061277c8261275e565b9050919050565b61278c81612771565b82525050565b600381106127a3576127a2612331565b5b50565b60008190506127b482612792565b919050565b60006127c4826127a6565b9050919050565b6127d4816127b9565b82525050565b6000610160820190506127f0600083018e611f60565b8181036020830152612802818d6122f8565b9050612811604083018c611f60565b61281e606083018b611f60565b61282b608083018a612783565b81810360a083015261283d81896122f8565b905081810360c083015261285181886122f8565b905081810360e083015261286581876122f8565b90506128756101008301866127cb565b6128836101208301856123a8565b6128916101408301846123a8565b9c9b505050505050505050505050565b7f596f75206d757374207265676973746572206669727374000000000000000000600082015250565b60006128d76017836122bd565b91506128e2826128a1565b602082019050919050565b60006020820190508181036000830152612906816128ca565b9050919050565b7f416e6f6d616c792063616e206265207265706f72746564204f4e4c592062792060008201527f434956494c49414e532e00000000000000000000000000000000000000000000602082015250565b6000612969602a836122bd565b91506129748261290d565b604082019050919050565b600060208201905081810360008301526129988161295c565b9050919050565b7f4e487b7100000000000000000000000000000000000000000000000000000000600052602260045260246000fd5b600060028204905060018216806129e657607f821691505b6020821081036129f9576129f861299f565b5b50919050565b60008190508160005260206000209050919050565b60006020601f8301049050919050565b600082821b905092915050565b600060088302612a617fffffffffffffffffffffffffffffffffffffffffffffffffffffffffffffffff82612a24565b612a6b8683612a24565b95508019841693508086168417925050509392505050565b6000819050919050565b6000612aa8612aa3612a9e84611eea565b612a83565b611eea565b9050919050565b6000819050919050565b612ac283612a8d565b612ad6612ace82612aaf565b848454612a31565b825550505050565b600090565b612aeb612ade565b612af6818484612ab9565b505050565b5b81811015612b1a57612b0f600082612ae3565b600181019050612afc565b5050565b601f821115612b5f57612b30816129ff565b612b3984612a14565b81016020851015612b48578190505b612b5c612b5485612a14565b830182612afb565b50505b505050565b600082821c905092915050565b6000612b8260001984600802612b64565b1980831691505092915050565b6000612b9b8383612b71565b9150826002028217905092915050565b612bb4826122b2565b67ffffffffffffffff811115612bcd57612bcc611fa5565b5b612bd782546129ce565b612be2828285612b1e565b600060209050601f831160018114612c155760008415612c03578287015190505b612c0d8582612b8f565b865550612c75565b601f198416612c23866129ff565b60005b82811015612c4b57848901518255600182019150602085019450602081019050612c26565b86831015612c685784890151612c64601f891682612b71565b8355505b6001600288020188555050505b505050505050565b600081905092915050565b6000612c93826122b2565b612c9d8185612c7d565b9350612cad8185602086016122ce565b80840191505092915050565b6000612cc58284612c88565b915081905092915050565b7f4e487b7100000000000000000000000000000000000000000000000000000000600052601160045260246000fd5b6000612d0a82611eea565b91507fffffffffffffffffffffffffffffffffffffffffffffffffffffffffffffffff8203612d3c57612d3b612cd0565b5b600182019050919050565b7f4163636573732044656e6965643a204f6e6c792041646d696e732043616e204160008201527f6363657373000000000000000000000000000000000000000000000000000000602082015250565b6000612da36025836122bd565b9150612dae82612d47565b604082019050919050565b60006020820190508181036000830152612dd281612d96565b9050919050565b7f417574686f72697a656420506572736f6e6e656c20616b612041444d494e206f60008201527f6e6c790000000000000000000000000000000000000000000000000000000000602082015250565b6000612e356023836122bd565b9150612e4082612dd9565b604082019050919050565b60006020820190508181036000830152612e6481612e28565b9050919050565b7f43617365204e756d62657220697320496e76616c69642c2052454a4543544544600082015250565b6000612ea16020836122bd565b9150612eac82612e6b565b602082019050919050565b60006020820190508181036000830152612ed081612e94565b9050919050565b7f526564756e64616e74204f7065726174696f6e2c204361736520616c7265616460008201527f79206d61726b656420617320464f554e44000000000000000000000000000000602082015250565b6000612f336031836122bd565b9150612f3e82612ed7565b604082019050919050565b60006020820190508181036000830152612f6281612f26565b9050919050565b7f537461747573206973206e6f742076616c696420746f20757064617465000000600082015250565b6000612f9f601d836122bd565b9150612faa82612f69565b602082019050919050565b60006020820190508181036000830152612fce81612f92565b9050919050565b7f5061776147657365000000000000000000000000000000000000000000000000600082015250565b600061300b6008836122bd565b915061301682612fd5565b602082019050919050565b60006040820190506130366000830184611f60565b818103602083015261304781612ffe565b905092915050565b7f4f6e6c7920434956494c49414e2063616e20626f6f6b00000000000000000000600082015250565b60006130856016836122bd565b91506130908261304f565b602082019050919050565b600060208201905081810360008301526130b481613078565b9050919050565b7f496e76616c69642063617365206e756d62657200000000000000000000000000600082015250565b60006130f16013836122bd565b91506130fc826130bb565b602082019050919050565b60006020820190508181036000830152613120816130e4565b9050919050565b7f4e6f742061204645445241000000000000000000000000000000000000000000600082015250565b600061315d600b836122bd565b915061316882613127565b602082019050919050565b6000602082019050818103600083015261318c81613150565b9050919050565b7f4d696e696d756d20302e30352045544820726571756972656400000000000000600082015250565b60006131c96019836122bd565b91506131d482613193565b602082019050919050565b600060208201905081810360008301526131f8816131bc565b9050919050565b7f536c6f7420616c726561647920626f6f6b656400000000000000000000000000600082015250565b60006132356013836122bd565b9150613240826131ff565b602082019050919050565b6000602082019050818103600083015261326481613228565b9050919050565b600060608201905061328060008301866123a8565b61328d60208301856123a8565b61329a6040830184611f60565b949350505050565b7f4e6f7420612076616c6964204645445241000000000000000000000000000000600082015250565b60006132d86011836122bd565b91506132e3826132a2565b602082019050919050565b60006020820190508181036000830152613307816132cb565b9050919050565b600060408201905061332360008301856123a8565b818103602083015261333581846122f8565b90509392505050565b7f46454452412063616e2062652061737369676e656420627920617574686f726960008201527f73656420706572736f6e6e656c206f6e6c792e00000000000000000000000000602082015250565b600061339a6033836122bd565b91506133a58261333e565b604082019050919050565b600060208201905081810360008301526133c98161338d565b9050919050565b7f53656c6563746564206973206e6f742046454452410000000000000000000000600082015250565b60006134066015836122bd565b9150613411826133d0565b602082019050919050565b60006020820190508181036000830152613435816133f9565b9050919050565b7f43616e6e6f742061737369676e207468652073616d6520464544524120666f7260008201527f2074776f2043617365732e000000000000000000000000000000000000000000602082015250565b6000613498602b836122bd565b91506134a38261343c565b604082019050919050565b600060208201905081810360008301526134c78161348b565b9050919050565b60006040820190506134e36000830185611f60565b6134f060208301846123a8565b939250505056fea2646970667358221220e577444a5a9b831c3a41d26952972aec2842dd64382492298ed805692aef297764736f6c63430008100033",
  "immutableReferences": {},
  "source": "// SPDX-License-Identifier: MIT\npragma solidity ^0.8.0;\n\ncontract LokJonHarayGese{\n    enum ROLE {None, ADMIN, CIVILIAN, FEDRA}\n    enum STATUS {HarayGese, PawaGese}\n    enum URGENCY {min, mid, max}\n\n    struct customer {\n        string name;\n        string NIDnumber;\n        ROLE role;\n        address thikanaOfUser;\n    }\n\n    struct harayGeseJe{\n        uint256 CaseNum;\n        string nameOfLost;\n        uint256 ageOfLost;\n        uint256 heightOfLost;\n        STATUS status;\n        string DescriptionOfLost;\n        string DivisionOfLost;\n        string ContactWhom;\n        URGENCY urgency;\n        address whoReported;\n        address fedra;\n    }\n\n    struct AppointmentForMissing{\n        uint256 CaseNum;\n        address fedra;\n        uint256 time;\n        address BookedByWhom;\n    }\n\n    // state variables\n    uint256 public NextCaseNum;\n    address public contractOwnedBy;\n\n    // user registration\n    mapping(address => customer) public customers;\n\n    // haray jawa betar data\n    mapping(uint256 => harayGeseJe) public cases;\n\n    // kon kon division theke haraise\n    mapping(string => uint256) public DivisionCount;\n\n    // assign cases\n    mapping(uint256 => address) public CaseToFedra;\n    mapping(address => uint[]) public FedraCases;\n\n    // appointments details\n    mapping(address => AppointmentForMissing[]) public FedraSchedule;\n    mapping(uint256 => mapping(address => bool)) public SlotBooked;\n\n    // event tracker for functions\n    event CustomerRegistrationKorse(address customer, string role);\n    event HarayJawaReported(uint256 CaseNum);\n    event StatusUpdateKorsi(uint256 CaseNum, string newStatus);\n    event FEDRAassigned(uint256 CaseNum, address fedra);\n    event EAppointmentBookKorse(address whoReported, address fedra, uint time);\n\n    // modifier\n\n    modifier shudhuAdmin(){\n        require(customers[msg.sender].role == ROLE.ADMIN, \"Access Denied: Only Admins Can Access\");\n        _;\n    }\n\n    modifier shudhuJeReportKorse(uint256 _caseNum) {\n    require(_caseNum < NextCaseNum, \"Case number is not valid.\");\n    require(cases[_caseNum].whoReported == msg.sender, \"Not the original reporter\");\n    _;\n    }\n\n\n    modifier onlyCustomerReg() {\n    require(customers[msg.sender].role != ROLE.None, \"You must register first\");\n    _;\n    }\n\n\n    // constructor\n    constructor(){\n        contractOwnedBy = msg.sender;\n        // bootstrapping\n        customers[msg.sender] = customer(\"ADMIN\", \"N/A\", ROLE.ADMIN, msg.sender);\n    }\n\n    // ============= Core \n    // Registered user \n    function registerCustomer(string memory _name, string memory _NIDcard, ROLE _role) public {\n        // require(customers[msg.sender].role == ROLE.None, \"Already registered\");\n        // require(_role == ROLE.CIVILIAN || _role == ROLE.FEDRA, \"The ROLE is INVALID\");\n\n        customers[msg.sender] = customer({\n            name: _name,\n            NIDnumber: _NIDcard,\n            role: _role,\n            thikanaOfUser: msg.sender\n        });\n        string memory roleStr = _role == ROLE.CIVILIAN ? \"CIVILIAN\" : \"FEDRA\";\n        emit CustomerRegistrationKorse(msg.sender, roleStr);\n    }\n\n    // core function 2: Report missing\n    function harayJawaReportKorseJe(\n        string memory nameOfLost,\n        uint256 ageOfLost,\n        uint256 heightOfLost,\n        string memory DescriptionOfLost,\n        string memory DivisionOfLost,\n        string memory ContactWhom\n    ) public onlyCustomerReg{\n        require(customers[msg.sender].role == ROLE.CIVILIAN, \"Anomaly can be reported ONLY by CIVILIANS.\");\n\n        URGENCY urgencyLevel;\n        if (ageOfLost < 18){\n            urgencyLevel = URGENCY.max;\n        }\n        else if(ageOfLost > 50){\n            urgencyLevel = URGENCY.mid;\n        }\n        else{\n            urgencyLevel = URGENCY.min;\n        }\n\n        harayGeseJe memory newCase = harayGeseJe({\n        CaseNum: NextCaseNum,\n        nameOfLost: nameOfLost,\n        ageOfLost: ageOfLost,\n        heightOfLost: heightOfLost,\n        status: STATUS.HarayGese,\n        DescriptionOfLost: DescriptionOfLost,\n        DivisionOfLost: DivisionOfLost,\n        ContactWhom: ContactWhom,\n        urgency: urgencyLevel,\n        whoReported: msg.sender,\n        fedra: address(0)\n        });\n\n    cases[NextCaseNum] = newCase;\n\n        DivisionCount[DivisionOfLost]++;\n        emit HarayJawaReported(NextCaseNum);\n        NextCaseNum++;\n    }\n    \n    // Core function 3: Status Update \n    function updateTheStatus(uint256 _caseNum, STATUS _newStatus) public shudhuAdmin{\n        require(customers[msg.sender].role == ROLE.ADMIN, \"Authorized Personnel aka ADMIN only\");\n        require(_caseNum < NextCaseNum, \"Case Number is Invalid, REJECTED\");\n\n        harayGeseJe storage caseToUpdate = cases[_caseNum];\n\n        require(caseToUpdate.status == STATUS.HarayGese, \"Redundant Operation, Case already marked as FOUND\");\n        require(_newStatus == STATUS.PawaGese, \"Status is not valid to update\");\n\n        caseToUpdate.status = _newStatus;\n        emit StatusUpdateKorsi(_caseNum, \"PawaGese\");\n    }\n\n    // Core function 4: Fedra assign\n\n    function FEDRAAssignKorsi(uint256 _caseNum, address _fedra) public {\n        require(customers[msg.sender].role == ROLE.ADMIN, \"FEDRA can be assigned by authorised personnel only.\");\n        require(_caseNum < NextCaseNum, \"Case Number is Invalid, REJECTED\");\n        require(customers[_fedra].role == ROLE.FEDRA, \"Selected is not FEDRA\");\n        harayGeseJe storage theCase = cases[_caseNum];\n        require(theCase.fedra == address(0), \"Cannot assign the same FEDRA for two Cases.\");\n        // condition checks done\n\n        // assigned\n        theCase.fedra = _fedra;\n        CaseToFedra[_caseNum] = _fedra;\n        FedraCases[_fedra].push(_caseNum);\n\n        emit FEDRAassigned(_caseNum, _fedra);\n    }\n\n    // Core Function 5 \n    function AppointmentBookKorse(\n    uint256 _caseNum,\n    address _fedra,\n    uint256 _slotTime\n    ) public payable onlyCustomerReg{\n    // CHECK CONDITIONS\n    require(customers[msg.sender].role == ROLE.CIVILIAN, \"Only CIVILIAN can book\");\n    require(_caseNum < NextCaseNum, \"Invalid case number\");\n    require(customers[_fedra].role == ROLE.FEDRA, \"Not a FEDRA\");\n    require(msg.value >= 0.05 ether, \"Minimum 0.05 ETH required\");\n    require(!SlotBooked[_slotTime][_fedra], \"Slot already booked\");\n\n    // Book it\n    SlotBooked[_slotTime][_fedra] = true;\n\n    FedraSchedule[_fedra].push(AppointmentForMissing({\n        CaseNum: _caseNum,\n        fedra: _fedra,\n        time: _slotTime,\n        BookedByWhom: msg.sender\n    }));\n\n    // Transfer ETH\n    payable(contractOwnedBy).transfer(msg.value);\n\n    emit EAppointmentBookKorse(msg.sender, _fedra, _slotTime);\n    }\n    \n\n\n    // CORE FUNCTION 6\n    function DekhteChaiSchedule(address _fedra) public view returns (AppointmentForMissing[] memory) {\n    require(customers[_fedra].role == ROLE.FEDRA, \"Not a valid FEDRA\");\n    return FedraSchedule[_fedra];\n}\n}\n",
  "sourcePath": "/home/ishmam-the-dumb/Desktop/lab 446 new/election/contracts/LokJonHarayGese.sol",
  "compiler": {
    "name": "solc",
    "version": "0.8.16+commit.07a7930e.Emscripten.clang"
  },
  "schemaVersion": "3.4.16",
  "updatedAt": "2025-05-01T09:43:59.728Z",
  "networkType": "ethereum",
  "devdoc": {
    "kind": "dev",
    "methods": {},
    "version": 1
  },
  "userdoc": {
    "kind": "user",
    "methods": {},
    "version": 1
  }
}