{
    "contractName": "LokJonHarayGese",
    "abi": [
        {
            "inputs": [],
            "stateMutability": "nonpayable",
            "type": "constructor"
        },
        {
            "anonymous": false,
            "inputs": [
                {
                    "indexed": false,
                    "internalType": "address",
                    "name": "customer",
                    "type": "address"
                },
                {
                    "indexed": false,
                    "internalType": "string",
                    "name": "role",
                    "type": "string"
                }
            ],
            "name": "CustomerRegistrationKorse",
            "type": "event"
        },
        {
            "anonymous": false,
            "inputs": [
                {
                    "indexed": false,
                    "internalType": "address",
                    "name": "whoReported",
                    "type": "address"
                },
                {
                    "indexed": false,
                    "internalType": "address",
                    "name": "fedra",
                    "type": "address"
                },
                {
                    "indexed": false,
                    "internalType": "uint256",
                    "name": "time",
                    "type": "uint256"
                }
            ],
            "name": "EAppointmentBookKorse",
            "type": "event"
        },
        {
            "anonymous": false,
            "inputs": [
                {
                    "indexed": false,
                    "internalType": "uint256",
                    "name": "CaseNum",
                    "type": "uint256"
                },
                {
                    "indexed": false,
                    "internalType": "address",
                    "name": "fedra",
                    "type": "address"
                }
            ],
            "name": "FEDRAassigned",
            "type": "event"
        },
        {
            "anonymous": false,
            "inputs": [
                {
                    "indexed": false,
                    "internalType": "uint256",
                    "name": "CaseNum",
                    "type": "uint256"
                }
            ],
            "name": "HarayJawaReported",
            "type": "event"
        },
        {
            "anonymous": false,
            "inputs": [
                {
                    "indexed": false,
                    "internalType": "uint256",
                    "name": "CaseNum",
                    "type": "uint256"
                },
                {
                    "indexed": false,
                    "internalType": "string",
                    "name": "newStatus",
                    "type": "string"
                }
            ],
            "name": "StatusUpdateKorsi",
            "type": "event"
        },
        {
            "inputs": [
                {
                    "internalType": "uint256",
                    "name": "_caseNum",
                    "type": "uint256"
                },
                {
                    "internalType": "address",
                    "name": "_fedra",
                    "type": "address"
                },
                {
                    "internalType": "uint256",
                    "name": "_slotTime",
                    "type": "uint256"
                }
            ],
            "name": "AppointmentBookKorse",
            "outputs": [],
            "stateMutability": "payable",
            "type": "function"
        },
        {
            "inputs": [
                {
                    "internalType": "uint256",
                    "name": "",
                    "type": "uint256"
                }
            ],
            "name": "CaseToFedra",
            "outputs": [
                {
                    "internalType": "address",
                    "name": "",
                    "type": "address"
                }
            ],
            "stateMutability": "view",
            "type": "function"
        },
        {
            "inputs": [
                {
                    "internalType": "address",
                    "name": "_fedra",
                    "type": "address"
                }
            ],
            "name": "DekhteChaiSchedule",
            "outputs": [
                {
                    "components": [
                        {
                            "internalType": "uint256",
                            "name": "CaseNum",
                            "type": "uint256"
                        },
                        {
                            "internalType": "address",
                            "name": "fedra",
                            "type": "address"
                        },
                        {
                            "internalType": "uint256",
                            "name": "time",
                            "type": "uint256"
                        },
                        {
                            "internalType": "address",
                            "name": "BookedByWhom",
                            "type": "address"
                        }
                    ],
                    "internalType": "struct LokJonHarayGese.AppointmentForMissing[]",
                    "name": "",
                    "type": "tuple[]"
                }
            ],
            "stateMutability": "view",
            "type": "function"
        },
        {
            "inputs": [
                {
                    "internalType": "string",
                    "name": "",
                    "type": "string"
                }
            ],
            "name": "DivisionCount",
            "outputs": [
                {
                    "internalType": "uint256",
                    "name": "",
                    "type": "uint256"
                }
            ],
            "stateMutability": "view",
            "type": "function"
        },
        {
            "inputs": [
                {
                    "internalType": "uint256",
                    "name": "_caseNum",
                    "type": "uint256"
                },
                {
                    "internalType": "address",
                    "name": "_fedra",
                    "type": "address"
                }
            ],
            "name": "FEDRAAssignKorsi",
            "outputs": [],
            "stateMutability": "nonpayable",
            "type": "function"
        },
        {
            "inputs": [
                {
                    "internalType": "address",
                    "name": "",
                    "type": "address"
                },
                {
                    "internalType": "uint256",
                    "name": "",
                    "type": "uint256"
                }
            ],
            "name": "FedraCases",
            "outputs": [
                {
                    "internalType": "uint256",
                    "name": "",
                    "type": "uint256"
                }
            ],
            "stateMutability": "view",
            "type": "function"
        },
        {
            "inputs": [
                {
                    "internalType": "address",
                    "name": "",
                    "type": "address"
                },
                {
                    "internalType": "uint256",
                    "name": "",
                    "type": "uint256"
                }
            ],
            "name": "FedraSchedule",
            "outputs": [
                {
                    "internalType": "uint256",
                    "name": "CaseNum",
                    "type": "uint256"
                },
                {
                    "internalType": "address",
                    "name": "fedra",
                    "type": "address"
                },
                {
                    "internalType": "uint256",
                    "name": "time",
                    "type": "uint256"
                },
                {
                    "internalType": "address",
                    "name": "BookedByWhom",
                    "type": "address"
                }
            ],
            "stateMutability": "view",
            "type": "function"
        },
        {
            "inputs": [],
            "name": "NextCaseNum",
            "outputs": [
                {
                    "internalType": "uint256",
                    "name": "",
                    "type": "uint256"
                }
            ],
            "stateMutability": "view",
            "type": "function"
        },
        {
            "inputs": [
                {
                    "internalType": "uint256",
                    "name": "",
                    "type": "uint256"
                },
                {
                    "internalType": "address",
                    "name": "",
                    "type": "address"
                }
            ],
            "name": "SlotBooked",
            "outputs": [
                {
                    "internalType": "bool",
                    "name": "",
                    "type": "bool"
                }
            ],
            "stateMutability": "view",
            "type": "function"
        },
        {
            "inputs": [
                {
                    "internalType": "uint256",
                    "name": "",
                    "type": "uint256"
                }
            ],
            "name": "cases",
            "outputs": [
                {
                    "internalType": "uint256",
                    "name": "CaseNum",
                    "type": "uint256"
                },
                {
                    "internalType": "string",
                    "name": "nameOfLost",
                    "type": "string"
                },
                {
                    "internalType": "uint256",
                    "name": "ageOfLost",
                    "type": "uint256"
                },
                {
                    "internalType": "uint256",
                    "name": "heightOfLost",
                    "type": "uint256"
                },
                {
                    "internalType": "enum LokJonHarayGese.STATUS",
                    "name": "status",
                    "type": "uint8"
                },
                {
                    "internalType": "string",
                    "name": "DescriptionOfLost",
                    "type": "string"
                },
                {
                    "internalType": "string",
                    "name": "DivisionOfLost",
                    "type": "string"
                },
                {
                    "internalType": "string",
                    "name": "ContactWhom",
                    "type": "string"
                },
                {
                    "internalType": "enum LokJonHarayGese.URGENCY",
                    "name": "urgency",
                    "type": "uint8"
                },
                {
                    "internalType": "address",
                    "name": "whoReported",
                    "type": "address"
                },
                {
                    "internalType": "address",
                    "name": "fedra",
                    "type": "address"
                }
            ],
            "stateMutability": "view",
            "type": "function"
        },
        {
            "inputs": [],
            "name": "contractOwnedBy",
            "outputs": [
                {
                    "internalType": "address",
                    "name": "",
                    "type": "address"
                }
            ],
            "stateMutability": "view",
            "type": "function"
        },
        {
            "inputs": [
                {
                    "internalType": "address",
                    "name": "",
                    "type": "address"
                }
            ],
            "name": "customers",
            "outputs": [
                {
                    "internalType": "string",
                    "name": "name",
                    "type": "string"
                },
                {
                    "internalType": "string",
                    "name": "NIDnumber",
                    "type": "string"
                },
                {
                    "internalType": "enum LokJonHarayGese.ROLE",
                    "name": "role",
                    "type": "uint8"
                },
                {
                    "internalType": "address",
                    "name": "thikanaOfUser",
                    "type": "address"
                }
            ],
            "stateMutability": "view",
            "type": "function"
        },
        {
            "inputs": [
                {
                    "internalType": "string",
                    "name": "nameOfLost",
                    "type": "string"
                },
                {
                    "internalType": "uint256",
                    "name": "ageOfLost",
                    "type": "uint256"
                },
                {
                    "internalType": "uint256",
                    "name": "heightOfLost",
                    "type": "uint256"
                },
                {
                    "internalType": "string",
                    "name": "DescriptionOfLost",
                    "type": "string"
                },
                {
                    "internalType": "string",
                    "name": "DivisionOfLost",
                    "type": "string"
                },
                {
                    "internalType": "string",
                    "name": "ContactWhom",
                    "type": "string"
                }
            ],
            "name": "harayJawaReportKorseJe",
            "outputs": [],
            "stateMutability": "nonpayable",
            "type": "function"
        },
        {
            "inputs": [
                {
                    "internalType": "string",
                    "name": "_name",
                    "type": "string"
                },
                {
                    "internalType": "string",
                    "name": "_NIDcard",
                    "type": "string"
                },
                {
                    "internalType": "enum LokJonHarayGese.ROLE",
                    "name": "_role",
                    "type": "uint8"
                }
            ],
            "name": "registerCustomer",
            "outputs": [],
            "stateMutability": "nonpayable",
            "type": "function"
        },
        {
            "inputs": [
                {
                    "internalType": "uint256",
                    "name": "_caseNum",
                    "type": "uint256"
                },
                {
                    "internalType": "enum LokJonHarayGese.STATUS",
                    "name": "_newStatus",
                    "type": "uint8"
                }
            ],
            "name": "updateTheStatus",
            "outputs": [],
            "stateMutability": "nonpayable",
            "type": "function"
        }
    ],
    "bytecode": "60806040523461036857600180546001600160a01b03191633179055604051608081016001600160401b0381118282101761028c57604052610041604061036c565b600581526420a226a4a760d91b6020820152815261005f604061036c565b60038152624e2f4160e81b6020820152602082019081526040820191600183526060810191338352335f52600260205260405f20915180519060018060401b03821161028c57835490600182811c9216801561035e575b602083101461026e5781601f84931161030e575b50602090601f83116001146102ab575f926102a0575b50508160011b915f199060031b1c19161782555b51805160018301916001600160401b03821161028c578254600181811c91168015610282575b602082101461026e57601f8111610229575b50602090601f83116001146101c2576002949392915f91836101b7575b50508160011b915f199060031b1c19161790555b0191519060048210156101a35782549051610100600160a81b0360089190911b1660ff929092166001600160a81b031990911617179055604051611c5690816103928239f35b634e487b7160e01b5f52602160045260245ffd5b015190505f80610149565b90601f19831691845f52815f20925f5b8181106102115750916001939185600298979694106101f9575b505050811b01905561015d565b01515f1960f88460031b161c191690555f80806101ec565b929360206001819287860151815501950193016101d2565b835f5260205f20601f840160051c81019160208510610264575b601f0160051c01905b818110610259575061012c565b5f815560010161024c565b9091508190610243565b634e487b7160e01b5f52602260045260245ffd5b90607f169061011a565b634e487b7160e01b5f52604160045260245ffd5b015190505f806100e0565b5f8681528281209350601f198516905b8181106102f657509084600195949392106102de575b505050811b0182556100f4565b01515f1960f88460031b161c191690555f80806102d1565b929360206001819287860151815501950193016102bb565b909150845f5260205f20601f840160051c81019160208510610354575b90601f859493920160051c01905b81811061034657506100ca565b5f8155849350600101610339565b909150819061032b565b91607f16916100b6565b5f80fd5b6040519190601f01601f191682016001600160401b0381118382101761028c5760405256fe60806040526004361015610011575f80fd5b5f3560e01c80630c1b9f2c146118a25780631ca0bb7e1461118a5780632a8365b214610f9f5780632ee168fe14610c73578063336989ae14610bda5780633b8ce70214610b91578063523cb3d714610a0857806369ff2518146109b35780637bb354e11461093057806385c39bf0146104b15780639765a82b14610495578063a167d3131461046d578063d2ee506e14610220578063deea0963146101ee5763f09790dd146100be575f80fd5b346101ea5760203660031901126101ea576004355f52600360205260405f208054906100ec60018201611a18565b60028201549060038301549160ff60048501541661010c60058601611a18565b61011860068701611a18565b61012460078801611a18565b9260088801549661015a60ff891699600960018060a01b0391015416976040519b8c5261016060208d01526101608c0190611ab8565b9560408b015260608a015260028110156101d6576101a89461019a9361018c9260808c01528a820360a08c0152611ab8565b9088820360c08a0152611ab8565b9086820360e0880152611ab8565b9160038410156101d657849361010085015260018060a01b039060081c166101208401526101408301520390f35b634e487b7160e01b5f52602160045260245ffd5b5f80fd5b346101ea5760203660031901126101ea576004355f526005602052602060018060a01b0360405f205416604051908152f35b346101ea5760403660031901126101ea5760043561023c611910565b335f52600260205260ff600260405f2001541660048110156101d65760010361040c5761026b5f548310611bd5565b6001600160a01b03165f818152600260208190526040909120015460ff1660048110156101d6576003036103cf575f82815260036020526040902060090180546001600160a01b031661037657816bffffffffffffffffffffffff60a01b825416179055815f52600560205260405f20816bffffffffffffffffffffffff60a01b825416179055805f52600660205260405f2091825491600160401b83101561036257610341837f10a1edd351ccb347c41da169fff8bfde2b8233a4de402a9ae5e928d40d607822956001604096018155611926565b81549060031b9084821b915f19901b191617905582519182526020820152a1005b634e487b7160e01b5f52604160045260245ffd5b60405162461bcd60e51b815260206004820152602b60248201527f43616e6e6f742061737369676e207468652073616d6520464544524120666f7260448201526a103a3bb79021b0b9b2b99760a91b6064820152608490fd5b60405162461bcd60e51b815260206004820152601560248201527453656c6563746564206973206e6f7420464544524160581b6044820152606490fd5b60405162461bcd60e51b815260206004820152603360248201527f46454452412063616e2062652061737369676e656420627920617574686f726960448201527239b2b2103832b939b7b73732b61037b7363c9760691b6064820152608490fd5b346101ea575f3660031901126101ea576001546040516001600160a01b039091168152602090f35b346101ea575f3660031901126101ea5760205f54604051908152f35b346101ea5760603660031901126101ea576004356001600160401b0381116101ea576104e190369060040161198b565b6024356001600160401b0381116101ea5761050090369060040161198b565b6044359160048310156101ea57335f52600260205260ff600260405f2001541660048110156101d65760016105359114611b7b565b335f52600260205260ff600260405f2001541660048110156101d6576108f6575f9060028414938480156108e9575b156108ae57604051916105768361194f565b82526020820193845260408201926101d65782526060810192338452335f52600260205260405f2091518051906001600160401b0382116103625781906105bd85546119e0565b601f811161085e575b50602090601f83116001146107fb575f926107f0575b50508160011b915f199060031b1c19161782555b51805160018301916001600160401b0382116103625761061083546119e0565b601f81116107ab575b50602090601f8311600114610744576002949392915f9183610739575b50508160011b915f199060031b1c19161790555b0190519160048310156101d65781549051610100600160a81b0360089190911b1660ff939093166001600160a81b031990911617919091179055156106f0577fd2bbbe2a152694b06b1a220a079ad502c6f0c511592405a456943c985aed79e26106eb6040516106bb60408261196a565b600881526721a4ab24a624a0a760c11b60208201525b604051918291338352604060208401526040830190611ab8565b0390a1005b7fd2bbbe2a152694b06b1a220a079ad502c6f0c511592405a456943c985aed79e26106eb60405161072260408261196a565b6005815264464544524160d81b60208201526106d1565b015190508880610636565b90601f19831691845f52815f20925f5b81811061079357509160019391856002989796941061077b575b505050811b01905561064a565b01515f1960f88460031b161c1916905588808061076e565b92936020600181928786015181550195019301610754565b835f5260205f20601f840160051c810191602085106107e6575b601f0160051c01905b8181106107db5750610619565b5f81556001016107ce565b90915081906107c5565b0151905087806105dc565b5f8681528281209350601f198516905b818110610846575090846001959493921061082e575b505050811b0182556105f0565b01515f1960f88460031b161c19169055878080610821565b9293602060018192878601518155019501930161080b565b909150845f5260205f20601f840160051c810191602085106108a4575b90601f859493920160051c01905b81811061089657506105c6565b5f8155849350600101610889565b909150819061087b565b60405162461bcd60e51b8152602060048201526013602482015272151a19481493d311481a5cc812539590531251606a1b6044820152606490fd5b505f925060038114610564565b60405162461bcd60e51b8152602060048201526012602482015271105b1c9958591e481c9959da5cdd195c995960721b6044820152606490fd5b346101ea5760403660031901126101ea576109496118fa565b6001600160a01b03165f908152600760205260409020805460243591908210156101ea5760809161097991611adc565b50805460018201546002830154600390930154604080519384526001600160a01b0392831660208501528301939093529091166060820152f35b346101ea5760203660031901126101ea576004356001600160401b0381116101ea576020806109e78193369060040161198b565b604051928184925191829101835e8101600481520301902054604051908152f35b346101ea5760203660031901126101ea576001600160a01b03610a296118fa565b16805f52600260205260ff600260405f2001541660048110156101d657600303610b58575f52600760205260405f208054906001600160401b0382116103625760405191610a7d60208260051b018461196a565b8083526020830180925f5260205f205f915b838310610b09578486604051918291602083019060208452518091526040830191905f5b818110610ac1575050500390f35b8251805185526020818101516001600160a01b039081168288015260408084015190880152606092830151169186019190915286955060809094019390920191600101610ab3565b60046020600192604051610b1c8161194f565b85548152848060a01b0385870154168382015260028601546040820152848060a01b036003870154166060820152815201920192019190610a8f565b60405162461bcd60e51b81526020600482015260116024820152704e6f7420612076616c696420464544524160781b6044820152606490fd5b346101ea5760403660031901126101ea57610baa611910565b6004355f52600860205260405f209060018060a01b03165f52602052602060ff60405f2054166040519015158152f35b346101ea5760203660031901126101ea576001600160a01b03610bfb6118fa565b165f52600260205260405f20610c1081611a18565b906002610c1f60018301611a18565b910154610c4d60ff821692610c3f60405195608087526080870190611ab8565b908582036020870152611ab8565b9060048310156101d6578392604084015260018060a01b039060081c1660608301520390f35b60603660031901126101ea57600435610c8a611910565b60443590335f52600260205260ff600260405f2001541660048110156101d657610cb5901515611af5565b335f52600260205260ff600260405f2001541660048110156101d657600203610f61575f54831015610f265760018060a01b031691825f52600260205260ff600260405f2001541660048110156101d657600303610ef35766b1a2bc2ec500003410610eae57815f52600860205260405f20835f5260205260ff60405f205416610e7357815f52600860205260405f20835f5260205260405f20600160ff19825416179055825f52600760205260405f209060405190610d748261194f565b815260208101918483526040820184815260608301913383528054600160401b81101561036257610daa91600182018155611adc565b949094610e6057925184559151600180850180546001600160a01b03199081166001600160a01b0394851617909155935160028601559151600394909401805490931693811693909317909155545f918291829182918291163415610e56575b3491f115610e4b577f6569d99fd3f5819db5943f01933584f934abf6b7f378369b7ceda6af151b042a916060916040519133835260208301526040820152a1005b6040513d5f823e3d90fd5b6108fc9150610e0a565b634e487b7160e01b5f525f60045260245ffd5b60405162461bcd60e51b815260206004820152601360248201527214db1bdd08185b1c9958591e48189bdbdad959606a1b6044820152606490fd5b60405162461bcd60e51b815260206004820152601960248201527f4d696e696d756d20302e303520455448207265717569726564000000000000006044820152606490fd5b60405162461bcd60e51b815260206004820152600b60248201526a4e6f74206120464544524160a81b6044820152606490fd5b60405162461bcd60e51b815260206004820152601360248201527224b73b30b634b21031b0b9b290373ab6b132b960691b6044820152606490fd5b60405162461bcd60e51b81526020600482015260166024820152754f6e6c7920434956494c49414e2063616e20626f6f6b60501b6044820152606490fd5b346101ea5760403660031901126101ea5760043560243560028110156101ea57335f52600260205260ff600260405f2001541660048110156101d6576001610fe79114611b7b565b335f52600260205260ff600260405f2001541660048110156101d657600103611139576110165f548310611bd5565b815f526003602052600460405f20019160ff83541660028110156101d6576110da57600182036110955761106d6080927f8c3530bbae6e18d7c8573553e7e16fed699a2cb30f252a8b1a76e75cd6d8393b94611b41565b604051908152604060208201526008604082015267506177614765736560c01b6060820152a1005b60405162461bcd60e51b815260206004820152601d60248201527f537461747573206973206e6f742076616c696420746f207570646174650000006044820152606490fd5b60405162461bcd60e51b815260206004820152603160248201527f526564756e64616e74204f7065726174696f6e2c204361736520616c726561646044820152701e481b585c9ad95908185cc81193d55391607a1b6064820152608490fd5b60405162461bcd60e51b815260206004820152602360248201527f417574686f72697a656420506572736f6e6e656c20616b612041444d494e206f6044820152626e6c7960e81b6064820152608490fd5b346101ea5760c03660031901126101ea576004356001600160401b0381116101ea576111ba90369060040161198b565b602435906064356001600160401b0381116101ea576111dd90369060040161198b565b6084356001600160401b0381116101ea576111fc90369060040161198b565b9060a4356001600160401b0381116101ea5761121c90369060040161198b565b92335f52600260205260ff600260405f2001541660048110156101d657611244901515611af5565b335f52600260205260ff600260405f2001541660048110156101d65760020361184a576012851015611832576002935b5f54956040519361016085018581106001600160401b0382111761036257604052878552602085019384526040850191825260608501604435815260808601905f825260a0870192835260c087019388855260e0880195865261010088019960038110156101d6578a5261012088019633885261014089019b5f8d525f52600360205260405f20985189556001890190518051906001600160401b03821161036257819061132284546119e0565b601f81116117e2575b50602090601f831160011461177f575f92611774575b50508160011b915f199060031b1c19161790555b5160028801555160038701555160028110156101d6576113789060048701611b41565b51805160058601916001600160401b03821161036257819061139a84546119e0565b601f8111611724575b50602090601f83116001146116c1575f926116b6575b50508160011b915f199060031b1c19161790555b51805160068501916001600160401b0382116103625781906113ef84546119e0565b601f8111611666575b50602090601f8311600114611603575f926115f8575b50508160011b915f199060031b1c19161790555b51805160078401916001600160401b03821161036257819061144484546119e0565b601f81116115a8575b50602090601f8311600114611545575f9261153a575b50508160011b915f199060031b1c19161790555b6008820193519460038610156101d657845491516001600160a81b031990921660ff9096169590951760089190911b610100600160a81b03161790925560209283929060099051910180546001600160a01b0319166001600160a01b0392909216919091179055604051815190938492829101835e810160048152030190206115008154611b59565b90556115365f547fc3b2d00872009149f1f7ee167a497b92c6b46636224a255cd1548830241c6dfc6020604051838152a1611b59565b5f55005b015190508880611463565b5f8581528281209350601f198516905b8181106115905750908460019594939210611578575b505050811b019055611477565b01515f1960f88460031b161c1916905588808061156b565b92936020600181928786015181550195019301611555565b909150835f5260205f20601f840160051c810191602085106115ee575b90601f859493920160051c01905b8181106115e0575061144d565b5f81558493506001016115d3565b90915081906115c5565b01519050898061140e565b5f8581528281209350601f198516905b81811061164e5750908460019594939210611636575b505050811b019055611422565b01515f1960f88460031b161c19169055898080611629565b92936020600181928786015181550195019301611613565b909150835f5260205f20601f840160051c810191602085106116ac575b90601f859493920160051c01905b81811061169e57506113f8565b5f8155849350600101611691565b9091508190611683565b015190508a806113b9565b5f8581528281209350601f198516905b81811061170c57509084600195949392106116f4575b505050811b0190556113cd565b01515f1960f88460031b161c191690558a80806116e7565b929360206001819287860151815501950193016116d1565b909150835f5260205f20601f840160051c8101916020851061176a575b90601f859493920160051c01905b81811061175c57506113a3565b5f815584935060010161174f565b9091508190611741565b015190508e80611341565b5f8581528281209350601f198516905b8181106117ca57509084600195949392106117b2575b505050811b019055611355565b01515f1960f88460031b161c191690558e80806117a5565b9293602060018192878601518155019501930161178f565b909150835f5260205f20601f840160051c81019160208510611828575b90601f859493920160051c01905b81811061181a575061132b565b5f815584935060010161180d565b90915081906117ff565b603285111561184357600193611274565b5f93611274565b60405162461bcd60e51b815260206004820152602a60248201527f416e6f6d616c792063616e206265207265706f72746564204f4e4c592062792060448201526921a4ab24a624a0a7299760b11b6064820152608490fd5b346101ea5760403660031901126101ea576118bb6118fa565b6001600160a01b03165f908152600660205260409020805460243591908210156101ea576020916118eb91611926565b90549060031b1c604051908152f35b600435906001600160a01b03821682036101ea57565b602435906001600160a01b03821682036101ea57565b805482101561193b575f5260205f2001905f90565b634e487b7160e01b5f52603260045260245ffd5b608081019081106001600160401b0382111761036257604052565b90601f801991011681019081106001600160401b0382111761036257604052565b81601f820112156101ea578035906001600160401b03821161036257604051926119bf601f8401601f19166020018561196a565b828452602083830101116101ea57815f926020809301838601378301015290565b90600182811c92168015611a0e575b60208310146119fa57565b634e487b7160e01b5f52602260045260245ffd5b91607f16916119ef565b9060405191825f825492611a2b846119e0565b8084529360018116908115611a965750600114611a52575b50611a509250038361196a565b565b90505f9291925260205f20905f915b818310611a7a575050906020611a50928201015f611a43565b6020919350806001915483858901015201910190918492611a61565b905060209250611a5094915060ff191682840152151560051b8201015f611a43565b805180835260209291819084018484015e5f828201840152601f01601f1916010190565b805482101561193b575f5260205f209060021b01905f90565b15611afc57565b60405162461bcd60e51b815260206004820152601760248201527f596f75206d7573742072656769737465722066697273740000000000000000006044820152606490fd5b9060028110156101d65760ff80198354169116179055565b5f198114611b675760010190565b634e487b7160e01b5f52601160045260245ffd5b15611b8257565b60405162461bcd60e51b815260206004820152602560248201527f4163636573732044656e6965643a204f6e6c792041646d696e732043616e2041604482015264636365737360d81b6064820152608490fd5b15611bdc57565b606460405162461bcd60e51b815260206004820152602060248201527f43617365204e756d62657220697320496e76616c69642c2052454a45435445446044820152fdfea2646970667358221220c6f5c9ceae214649ab49af490b94b619185b7815af1025dbf18069193d4cb33e64736f6c634300081d0033",
    "sourcePath": "/media/ishmam-the-dumb/Partition 1/Visual Studio Code/CSE446-BlockChain/Lab/LabProjectPart1/smartContract.sol",
    "compiler": {
        "name": "solc",
        "version": "0.8.29+commit.ab55807c"
    },
    "functionHashes": {
        "AppointmentBookKorse(uint256,address,uint256)": "2ee168fe",
        "CaseToFedra(uint256)": "deea0963",
        "DekhteChaiSchedule(address)": "523cb3d7",
        "DivisionCount(string)": "69ff2518",
        "FEDRAAssignKorsi(uint256,address)": "d2ee506e",
        "FedraCases(address,uint256)": "0c1b9f2c",
        "FedraSchedule(address,uint256)": "7bb354e1",
        "NextCaseNum()": "9765a82b",
        "SlotBooked(uint256,address)": "3b8ce702",
        "cases(uint256)": "f09790dd",
        "contractOwnedBy()": "a167d313",
        "customers(address)": "336989ae",
        "harayJawaReportKorseJe(string,uint256,uint256,string,string,string)": "1ca0bb7e",
        "registerCustomer(string,string,uint8)": "85c39bf0",
        "updateTheStatus(uint256,uint8)": "2a8365b2"
    },
    "gasEstimates": {
        "creation": {
            "codeDepositCost": "1450800",
            "executionCost": "infinite",
            "totalCost": "infinite"
        },
        "external": {
            "AppointmentBookKorse(uint256,address,uint256)": "infinite",
            "CaseToFedra(uint256)": "2617",
            "DekhteChaiSchedule(address)": "infinite",
            "DivisionCount(string)": "infinite",
            "FEDRAAssignKorsi(uint256,address)": "109882",
            "FedraCases(address,uint256)": "6769",
            "FedraSchedule(address,uint256)": "13361",
            "NextCaseNum()": "2467",
            "SlotBooked(uint256,address)": "2587",
            "cases(uint256)": "infinite",
            "contractOwnedBy()": "2514",
            "customers(address)": "infinite",
            "harayJawaReportKorseJe(string,uint256,uint256,string,string,string)": "infinite",
            "registerCustomer(string,string,uint8)": "infinite",
            "updateTheStatus(uint256,uint8)": "35207"
        }
    }
}